{
  "contractName": "AssetTracker",
  "abi": [
    {
      "constant": true,
      "inputs": [],
      "name": "userCount",
      "outputs": [
        {
          "name": "",
          "type": "uint256"
        }
      ],
      "payable": false,
      "stateMutability": "view",
      "type": "function"
    },
    {
      "constant": true,
      "inputs": [
        {
          "name": "",
          "type": "address"
        }
      ],
      "name": "LoginStore",
      "outputs": [
        {
          "name": "user_address",
          "type": "address"
        },
        {
          "name": "email",
          "type": "string"
        },
        {
          "name": "password",
          "type": "string"
        },
        {
          "name": "name",
          "type": "string"
        },
        {
          "name": "typeID",
          "type": "string"
        },
        {
          "name": "addressUser",
          "type": "string"
        },
        {
          "name": "phone",
          "type": "string"
        },
        {
          "name": "location",
          "type": "string"
        }
      ],
      "payable": false,
      "stateMutability": "view",
      "type": "function"
    },
    {
      "constant": true,
      "inputs": [],
      "name": "bloodCount",
      "outputs": [
        {
          "name": "",
          "type": "uint256"
        }
      ],
      "payable": false,
      "stateMutability": "view",
      "type": "function"
    },
    {
      "constant": true,
      "inputs": [
        {
          "name": "",
          "type": "uint256"
        }
      ],
      "name": "BloodStore",
      "outputs": [
        {
          "name": "id",
          "type": "uint256"
        },
        {
          "name": "uniqueid",
          "type": "string"
        },
        {
          "name": "batch",
          "type": "string"
        },
        {
          "name": "aadhar",
          "type": "string"
        },
        {
          "name": "currentPosition",
          "type": "string"
        },
        {
          "name": "blood_group",
          "type": "string"
        },
        {
          "name": "expiry_date",
          "type": "string"
        },
        {
          "name": "verified",
          "type": "uint256"
        },
        {
          "name": "statusCount",
          "type": "uint256"
        }
      ],
      "payable": false,
      "stateMutability": "view",
      "type": "function"
    },
    {
      "anonymous": false,
      "inputs": [
        {
          "indexed": false,
          "name": "id",
          "type": "uint256"
        },
        {
          "indexed": false,
          "name": "newOwner",
          "type": "string"
        },
        {
          "indexed": false,
          "name": "verified",
          "type": "uint256"
        },
        {
          "indexed": false,
          "name": "status",
          "type": "string"
        }
      ],
      "name": "BloodTransfer",
      "type": "event"
    },
    {
      "anonymous": false,
      "inputs": [
        {
          "indexed": false,
          "name": "id",
          "type": "uint256"
        },
        {
          "indexed": false,
          "name": "currentPosition",
          "type": "string"
        },
        {
          "indexed": false,
          "name": "status",
          "type": "string"
        },
        {
          "indexed": false,
          "name": "verified",
          "type": "uint256"
        }
      ],
      "name": "BloodCreate",
      "type": "event"
    },
    {
      "constant": false,
      "inputs": [
        {
          "name": "_uniqueid",
          "type": "string"
        },
        {
          "name": "_batch",
          "type": "string"
        },
        {
          "name": "_aadhar",
          "type": "string"
        },
        {
          "name": "_currentPosition",
          "type": "string"
        },
        {
          "name": "_blood_group",
          "type": "string"
        },
        {
          "name": "_expiry_date",
          "type": "string"
        },
        {
          "name": "_status",
          "type": "string"
        }
      ],
      "name": "createAsset",
      "outputs": [
        {
          "name": "",
          "type": "uint256"
        }
      ],
      "payable": false,
      "stateMutability": "nonpayable",
      "type": "function"
    },
    {
      "constant": true,
      "inputs": [
        {
          "name": "_id",
          "type": "uint256"
        }
      ],
      "name": "getBlood",
      "outputs": [
        {
          "name": "",
          "type": "string"
        },
        {
          "name": "",
          "type": "string"
        },
        {
          "name": "",
          "type": "string"
        },
        {
          "name": "",
          "type": "string"
        },
        {
          "name": "",
          "type": "string"
        },
        {
          "name": "",
          "type": "string"
        }
      ],
      "payable": false,
      "stateMutability": "view",
      "type": "function"
    },
    {
      "constant": true,
      "inputs": [
        {
          "name": "_id",
          "type": "uint256"
        }
      ],
      "name": "getBlood2",
      "outputs": [
        {
          "name": "",
          "type": "uint256"
        },
        {
          "name": "",
          "type": "uint256"
        }
      ],
      "payable": false,
      "stateMutability": "view",
      "type": "function"
    },
    {
      "constant": false,
      "inputs": [
        {
          "name": "_id",
          "type": "uint256"
        },
        {
          "name": "_oldUser",
          "type": "string"
        },
        {
          "name": "verified",
          "type": "uint256"
        },
        {
          "name": "_status",
          "type": "string"
        },
        {
          "name": "_newUser",
          "type": "string"
        }
      ],
      "name": "transferAsset",
      "outputs": [
        {
          "name": "",
          "type": "string"
        }
      ],
      "payable": false,
      "stateMutability": "nonpayable",
      "type": "function"
    },
    {
      "constant": true,
      "inputs": [],
      "name": "getBloodCount",
      "outputs": [
        {
          "name": "",
          "type": "uint256"
        }
      ],
      "payable": false,
      "stateMutability": "view",
      "type": "function"
    },
    {
      "constant": true,
      "inputs": [
        {
          "name": "_id",
          "type": "uint256"
        },
        {
          "name": "_statusCount",
          "type": "uint256"
        }
      ],
      "name": "getStatus",
      "outputs": [
        {
          "name": "",
          "type": "uint256"
        },
        {
          "name": "",
          "type": "string"
        },
        {
          "name": "",
          "type": "string"
        },
        {
          "name": "",
          "type": "uint256"
        }
      ],
      "payable": false,
      "stateMutability": "view",
      "type": "function"
    },
    {
      "constant": false,
      "inputs": [
        {
          "name": "_name",
          "type": "string"
        },
        {
          "name": "user_address",
          "type": "address"
        },
        {
          "name": "_email",
          "type": "string"
        },
        {
          "name": "_password",
          "type": "string"
        },
        {
          "name": "_typeID",
          "type": "string"
        },
        {
          "name": "_address",
          "type": "string"
        },
        {
          "name": "_phone",
          "type": "string"
        },
        {
          "name": "_location",
          "type": "string"
        }
      ],
      "name": "addidentity",
      "outputs": [],
      "payable": false,
      "stateMutability": "nonpayable",
      "type": "function"
    },
    {
      "constant": true,
      "inputs": [
        {
          "name": "_name",
          "type": "string"
        }
      ],
      "name": "getemail",
      "outputs": [
        {
          "name": "",
          "type": "string"
        }
      ],
      "payable": false,
      "stateMutability": "view",
      "type": "function"
    },
    {
      "constant": true,
      "inputs": [
        {
          "name": "_add",
          "type": "address"
        },
        {
          "name": "_email",
          "type": "string"
        },
        {
          "name": "_password",
          "type": "string"
        }
      ],
      "name": "getLogin",
      "outputs": [
        {
          "name": "",
          "type": "string"
        },
        {
          "name": "",
          "type": "string"
        },
        {
          "name": "",
          "type": "string"
        },
        {
          "name": "",
          "type": "string"
        },
        {
          "name": "",
          "type": "string"
        }
      ],
      "payable": false,
      "stateMutability": "view",
      "type": "function"
    },
    {
      "constant": true,
      "inputs": [],
      "name": "getUserCount",
      "outputs": [
        {
          "name": "",
          "type": "uint256"
        }
      ],
      "payable": false,
      "stateMutability": "view",
      "type": "function"
    }
  ],
  "bytecode": "0x60806040526000600155600060045534801561001a57600080fd5b506141048061002a6000396000f3fe6080604052600436106100ca576000357c01000000000000000000000000000000000000000000000000000000009004806307973ccf146100cf57806339b67b28146100fa57806351f650e614610150578063672af74e1461017b5780637211dde4146105e15780638afd22c3146107225780639bc24b54146109f2578063a745da6514610d77578063acfabc1114610eaf578063b5cb15f714611132578063b6e857c61461115d578063be3cba0d14611188578063c88b53a514611530578063e8c67a2514611815575b600080fd5b3480156100db57600080fd5b506100e4611c88565b6040518082815260200191505060405180910390f35b34801561010657600080fd5b506101336004803603602081101561011d57600080fd5b8101908080359060200190929190505050611c8e565b604051808381526020018281526020019250505060405180910390f35b34801561015c57600080fd5b50610165611cc6565b6040518082815260200191505060405180910390f35b34801561018757600080fd5b506105cb600480360360e081101561019e57600080fd5b81019080803590602001906401000000008111156101bb57600080fd5b8201836020820111156101cd57600080fd5b803590602001918460018302840111640100000000831117156101ef57600080fd5b91908080601f016020809104026020016040519081016040528093929190818152602001838380828437600081840152601f19601f8201169050808301925050505050505091929192908035906020019064010000000081111561025257600080fd5b82018360208201111561026457600080fd5b8035906020019184600183028401116401000000008311171561028657600080fd5b91908080601f016020809104026020016040519081016040528093929190818152602001838380828437600081840152601f19601f820116905080830192505050505050509192919290803590602001906401000000008111156102e957600080fd5b8201836020820111156102fb57600080fd5b8035906020019184600183028401116401000000008311171561031d57600080fd5b91908080601f016020809104026020016040519081016040528093929190818152602001838380828437600081840152601f19601f8201169050808301925050505050505091929192908035906020019064010000000081111561038057600080fd5b82018360208201111561039257600080fd5b803590602001918460018302840111640100000000831117156103b457600080fd5b91908080601f016020809104026020016040519081016040528093929190818152602001838380828437600081840152601f19601f8201169050808301925050505050505091929192908035906020019064010000000081111561041757600080fd5b82018360208201111561042957600080fd5b8035906020019184600183028401116401000000008311171561044b57600080fd5b91908080601f016020809104026020016040519081016040528093929190818152602001838380828437600081840152601f19601f820116905080830192505050505050509192919290803590602001906401000000008111156104ae57600080fd5b8201836020820111156104c057600080fd5b803590602001918460018302840111640100000000831117156104e257600080fd5b91908080601f016020809104026020016040519081016040528093929190818152602001838380828437600081840152601f19601f8201169050808301925050505050505091929192908035906020019064010000000081111561054557600080fd5b82018360208201111561055757600080fd5b8035906020019184600183028401116401000000008311171561057957600080fd5b91908080601f016020809104026020016040519081016040528093929190818152602001838380828437600081840152601f19601f820116905080830192505050505050509192919290505050611cd0565b6040518082815260200191505060405180910390f35b3480156105ed57600080fd5b506106a76004803603602081101561060457600080fd5b810190808035906020019064010000000081111561062157600080fd5b82018360208201111561063357600080fd5b8035906020019184600183028401116401000000008311171561065557600080fd5b91908080601f016020809104026020016040519081016040528093929190818152602001838380828437600081840152601f19601f82011690508083019250505050505050919291929050505061200e565b6040518080602001828103825283818151815260200191508051906020019080838360005b838110156106e75780820151818401526020810190506106cc565b50505050905090810190601f1680156107145780820380516001836020036101000a031916815260200191505b509250505060405180910390f35b34801561072e57600080fd5b5061075b6004803603602081101561074557600080fd5b810190808035906020019092919050505061211b565b6040518080602001806020018060200180602001806020018060200187810387528d818151815260200191508051906020019080838360005b838110156107af578082015181840152602081019050610794565b50505050905090810190601f1680156107dc5780820380516001836020036101000a031916815260200191505b5087810386528c818151815260200191508051906020019080838360005b838110156108155780820151818401526020810190506107fa565b50505050905090810190601f1680156108425780820380516001836020036101000a031916815260200191505b5087810385528b818151815260200191508051906020019080838360005b8381101561087b578082015181840152602081019050610860565b50505050905090810190601f1680156108a85780820380516001836020036101000a031916815260200191505b5087810384528a818151815260200191508051906020019080838360005b838110156108e15780820151818401526020810190506108c6565b50505050905090810190601f16801561090e5780820380516001836020036101000a031916815260200191505b50878103835289818151815260200191508051906020019080838360005b8381101561094757808201518184015260208101905061092c565b50505050905090810190601f1680156109745780820380516001836020036101000a031916815260200191505b50878103825288818151815260200191508051906020019080838360005b838110156109ad578082015181840152602081019050610992565b50505050905090810190601f1680156109da5780820380516001836020036101000a031916815260200191505b509c5050505050505050505050505060405180910390f35b3480156109fe57600080fd5b50610a4160048036036020811015610a1557600080fd5b81019080803573ffffffffffffffffffffffffffffffffffffffff16906020019092919050505061255f565b604051808973ffffffffffffffffffffffffffffffffffffffff1673ffffffffffffffffffffffffffffffffffffffff1681526020018060200180602001806020018060200180602001806020018060200188810388528f818151815260200191508051906020019080838360005b83811015610acb578082015181840152602081019050610ab0565b50505050905090810190601f168015610af85780820380516001836020036101000a031916815260200191505b5088810387528e818151815260200191508051906020019080838360005b83811015610b31578082015181840152602081019050610b16565b50505050905090810190601f168015610b5e5780820380516001836020036101000a031916815260200191505b5088810386528d818151815260200191508051906020019080838360005b83811015610b97578082015181840152602081019050610b7c565b50505050905090810190601f168015610bc45780820380516001836020036101000a031916815260200191505b5088810385528c818151815260200191508051906020019080838360005b83811015610bfd578082015181840152602081019050610be2565b50505050905090810190601f168015610c2a5780820380516001836020036101000a031916815260200191505b5088810384528b818151815260200191508051906020019080838360005b83811015610c63578082015181840152602081019050610c48565b50505050905090810190601f168015610c905780820380516001836020036101000a031916815260200191505b5088810383528a818151815260200191508051906020019080838360005b83811015610cc9578082015181840152602081019050610cae565b50505050905090810190601f168015610cf65780820380516001836020036101000a031916815260200191505b50888103825289818151815260200191508051906020019080838360005b83811015610d2f578082015181840152602081019050610d14565b50505050905090810190601f168015610d5c5780820380516001836020036101000a031916815260200191505b509f5050505050505050505050505050505060405180910390f35b348015610d8357600080fd5b50610dba60048036036040811015610d9a57600080fd5b8101908080359060200190929190803590602001909291905050506129ef565b604051808581526020018060200180602001848152602001838103835286818151815260200191508051906020019080838360005b83811015610e0a578082015181840152602081019050610def565b50505050905090810190601f168015610e375780820380516001836020036101000a031916815260200191505b50838103825285818151815260200191508051906020019080838360005b83811015610e70578082015181840152602081019050610e55565b50505050905090810190601f168015610e9d5780820380516001836020036101000a031916815260200191505b50965050505050505060405180910390f35b348015610ebb57600080fd5b506110b7600480360360a0811015610ed257600080fd5b810190808035906020019092919080359060200190640100000000811115610ef957600080fd5b820183602082011115610f0b57600080fd5b80359060200191846001830284011164010000000083111715610f2d57600080fd5b91908080601f016020809104026020016040519081016040528093929190818152602001838380828437600081840152601f19601f8201169050808301925050505050505091929192908035906020019092919080359060200190640100000000811115610f9a57600080fd5b820183602082011115610fac57600080fd5b80359060200191846001830284011164010000000083111715610fce57600080fd5b91908080601f016020809104026020016040519081016040528093929190818152602001838380828437600081840152601f19601f8201169050808301925050505050505091929192908035906020019064010000000081111561103157600080fd5b82018360208201111561104357600080fd5b8035906020019184600183028401116401000000008311171561106557600080fd5b91908080601f016020809104026020016040519081016040528093929190818152602001838380828437600081840152601f19601f820116905080830192505050505050509192919290505050612bb6565b6040518080602001828103825283818151815260200191508051906020019080838360005b838110156110f75780820151818401526020810190506110dc565b50505050905090810190601f1680156111245780820380516001836020036101000a031916815260200191505b509250505060405180910390f35b34801561113e57600080fd5b50611147613014565b6040518082815260200191505060405180910390f35b34801561116957600080fd5b5061117261301e565b6040518082815260200191505060405180910390f35b34801561119457600080fd5b50611305600480360360608110156111ab57600080fd5b81019080803573ffffffffffffffffffffffffffffffffffffffff169060200190929190803590602001906401000000008111156111e857600080fd5b8201836020820111156111fa57600080fd5b8035906020019184600183028401116401000000008311171561121c57600080fd5b91908080601f016020809104026020016040519081016040528093929190818152602001838380828437600081840152601f19601f8201169050808301925050505050505091929192908035906020019064010000000081111561127f57600080fd5b82018360208201111561129157600080fd5b803590602001918460018302840111640100000000831117156112b357600080fd5b91908080601f016020809104026020016040519081016040528093929190818152602001838380828437600081840152601f19601f820116905080830192505050505050509192919290505050613024565b60405180806020018060200180602001806020018060200186810386528b818151815260200191508051906020019080838360005b8381101561135557808201518184015260208101905061133a565b50505050905090810190601f1680156113825780820380516001836020036101000a031916815260200191505b5086810385528a818151815260200191508051906020019080838360005b838110156113bb5780820151818401526020810190506113a0565b50505050905090810190601f1680156113e85780820380516001836020036101000a031916815260200191505b50868103845289818151815260200191508051906020019080838360005b83811015611421578082015181840152602081019050611406565b50505050905090810190601f16801561144e5780820380516001836020036101000a031916815260200191505b50868103835288818151815260200191508051906020019080838360005b8381101561148757808201518184015260208101905061146c565b50505050905090810190601f1680156114b45780820380516001836020036101000a031916815260200191505b50868103825287818151815260200191508051906020019080838360005b838110156114ed5780820151818401526020810190506114d2565b50505050905090810190601f16801561151a5780820380516001836020036101000a031916815260200191505b509a505050505050505050505060405180910390f35b34801561153c57600080fd5b506115696004803603602081101561155357600080fd5b810190808035906020019092919050505061396b565b604051808a815260200180602001806020018060200180602001806020018060200189815260200188815260200187810387528f818151815260200191508051906020019080838360005b838110156115cf5780820151818401526020810190506115b4565b50505050905090810190601f1680156115fc5780820380516001836020036101000a031916815260200191505b5087810386528e818151815260200191508051906020019080838360005b8381101561163557808201518184015260208101905061161a565b50505050905090810190601f1680156116625780820380516001836020036101000a031916815260200191505b5087810385528d818151815260200191508051906020019080838360005b8381101561169b578082015181840152602081019050611680565b50505050905090810190601f1680156116c85780820380516001836020036101000a031916815260200191505b5087810384528c818151815260200191508051906020019080838360005b838110156117015780820151818401526020810190506116e6565b50505050905090810190601f16801561172e5780820380516001836020036101000a031916815260200191505b5087810383528b818151815260200191508051906020019080838360005b8381101561176757808201518184015260208101905061174c565b50505050905090810190601f1680156117945780820380516001836020036101000a031916815260200191505b5087810382528a818151815260200191508051906020019080838360005b838110156117cd5780820151818401526020810190506117b2565b50505050905090810190601f1680156117fa5780820380516001836020036101000a031916815260200191505b509f5050505050505050505050505050505060405180910390f35b34801561182157600080fd5b50611c86600480360361010081101561183957600080fd5b810190808035906020019064010000000081111561185657600080fd5b82018360208201111561186857600080fd5b8035906020019184600183028401116401000000008311171561188a57600080fd5b91908080601f016020809104026020016040519081016040528093929190818152602001838380828437600081840152601f19601f820116905080830192505050505050509192919290803573ffffffffffffffffffffffffffffffffffffffff1690602001909291908035906020019064010000000081111561190d57600080fd5b82018360208201111561191f57600080fd5b8035906020019184600183028401116401000000008311171561194157600080fd5b91908080601f016020809104026020016040519081016040528093929190818152602001838380828437600081840152601f19601f820116905080830192505050505050509192919290803590602001906401000000008111156119a457600080fd5b8201836020820111156119b657600080fd5b803590602001918460018302840111640100000000831117156119d857600080fd5b91908080601f016020809104026020016040519081016040528093929190818152602001838380828437600081840152601f19601f82011690508083019250505050505050919291929080359060200190640100000000811115611a3b57600080fd5b820183602082011115611a4d57600080fd5b80359060200191846001830284011164010000000083111715611a6f57600080fd5b91908080601f016020809104026020016040519081016040528093929190818152602001838380828437600081840152601f19601f82011690508083019250505050505050919291929080359060200190640100000000811115611ad257600080fd5b820183602082011115611ae457600080fd5b80359060200191846001830284011164010000000083111715611b0657600080fd5b91908080601f016020809104026020016040519081016040528093929190818152602001838380828437600081840152601f19601f82011690508083019250505050505050919291929080359060200190640100000000811115611b6957600080fd5b820183602082011115611b7b57600080fd5b80359060200191846001830284011164010000000083111715611b9d57600080fd5b91908080601f016020809104026020016040519081016040528093929190818152602001838380828437600081840152601f19601f82011690508083019250505050505050919291929080359060200190640100000000811115611c0057600080fd5b820183602082011115611c1257600080fd5b80359060200191846001830284011164010000000083111715611c3457600080fd5b91908080601f016020809104026020016040519081016040528093929190818152602001838380828437600081840152601f19601f820116905080830192505050505050509192919290505050613d49565b005b60045481565b600080600080848152602001908152602001600020600701546000808581526020019081526020016000206008015491509150915091565b6000600154905090565b60006001600081548092919060010191905055506101206040519081016040528060015481526020018981526020018881526020018781526020018681526020018581526020018481526020016000815260200160008152506000806001548152602001908152602001600020600082015181600001556020820151816001019080519060200190611d63929190613f8a565b506040820151816002019080519060200190611d80929190613f8a565b506060820151816003019080519060200190611d9d929190613f8a565b506080820151816004019080519060200190611dba929190613f8a565b5060a0820151816005019080519060200190611dd7929190613f8a565b5060c0820151816006019080519060200190611df4929190613f8a565b5060e0820151816007015561010082015181600801559050506000806001548152602001908152602001600020600801600081548092919060010191905055506080604051908101604052804281526020018381526020018681526020016000815250600080600154815260200190815260200160002060090160008060006001548152602001908152602001600020600801548152602001908152602001600020600082015181600001556020820151816001019080519060200190611ebc929190613f8a565b506040820151816002019080519060200190611ed9929190613f8a565b50606082015181600301559050507f3c958191e6ccab503ae675402e1c996a40a0e790bdd851abbd16d3b127e0f51660015486846000604051808581526020018060200180602001848152602001838103835286818151815260200191508051906020019080838360005b83811015611f5f578082015181840152602081019050611f44565b50505050905090810190601f168015611f8c5780820380516001836020036101000a031916815260200191505b50838103825285818151815260200191508051906020019080838360005b83811015611fc5578082015181840152602081019050611faa565b50505050905090810190601f168015611ff25780820380516001836020036101000a031916815260200191505b50965050505050505060405180910390a1979650505050505050565b60606003826040518082805190602001908083835b6020831015156120485780518252602082019150602081019050602083039250612023565b6001836020036101000a03801982511681845116808217855250505050505090500191505090815260200160405180910390208054600181600116156101000203166002900480601f01602080910402602001604051908101604052809291908181526020018280546001816001161561010002031660029004801561210f5780601f106120e45761010080835404028352916020019161210f565b820191906000526020600020905b8154815290600101906020018083116120f257829003601f168201915b50505050509050919050565b6060806060806060806000808881526020019081526020016000206001016000808981526020019081526020016000206002016000808a81526020019081526020016000206003016000808b81526020019081526020016000206004016000808c81526020019081526020016000206005016000808d8152602001908152602001600020600601858054600181600116156101000203166002900480601f0160208091040260200160405190810160405280929190818152602001828054600181600116156101000203166002900480156122375780601f1061220c57610100808354040283529160200191612237565b820191906000526020600020905b81548152906001019060200180831161221a57829003601f168201915b50505050509550848054600181600116156101000203166002900480601f0160208091040260200160405190810160405280929190818152602001828054600181600116156101000203166002900480156122d35780601f106122a8576101008083540402835291602001916122d3565b820191906000526020600020905b8154815290600101906020018083116122b657829003601f168201915b50505050509450838054600181600116156101000203166002900480601f01602080910402602001604051908101604052809291908181526020018280546001816001161561010002031660029004801561236f5780601f106123445761010080835404028352916020019161236f565b820191906000526020600020905b81548152906001019060200180831161235257829003601f168201915b50505050509350828054600181600116156101000203166002900480601f01602080910402602001604051908101604052809291908181526020018280546001816001161561010002031660029004801561240b5780601f106123e05761010080835404028352916020019161240b565b820191906000526020600020905b8154815290600101906020018083116123ee57829003601f168201915b50505050509250818054600181600116156101000203166002900480601f0160208091040260200160405190810160405280929190818152602001828054600181600116156101000203166002900480156124a75780601f1061247c576101008083540402835291602001916124a7565b820191906000526020600020905b81548152906001019060200180831161248a57829003601f168201915b50505050509150808054600181600116156101000203166002900480601f0160208091040260200160405190810160405280929190818152602001828054600181600116156101000203166002900480156125435780601f1061251857610100808354040283529160200191612543565b820191906000526020600020905b81548152906001019060200180831161252657829003601f168201915b5050505050905095509550955095509550955091939550919395565b60026020528060005260406000206000915090508060000160009054906101000a900473ffffffffffffffffffffffffffffffffffffffff1690806001018054600181600116156101000203166002900480601f0160208091040260200160405190810160405280929190818152602001828054600181600116156101000203166002900480156126315780601f1061260657610100808354040283529160200191612631565b820191906000526020600020905b81548152906001019060200180831161261457829003601f168201915b505050505090806002018054600181600116156101000203166002900480601f0160208091040260200160405190810160405280929190818152602001828054600181600116156101000203166002900480156126cf5780601f106126a4576101008083540402835291602001916126cf565b820191906000526020600020905b8154815290600101906020018083116126b257829003601f168201915b505050505090806003018054600181600116156101000203166002900480601f01602080910402602001604051908101604052809291908181526020018280546001816001161561010002031660029004801561276d5780601f106127425761010080835404028352916020019161276d565b820191906000526020600020905b81548152906001019060200180831161275057829003601f168201915b505050505090806004018054600181600116156101000203166002900480601f01602080910402602001604051908101604052809291908181526020018280546001816001161561010002031660029004801561280b5780601f106127e05761010080835404028352916020019161280b565b820191906000526020600020905b8154815290600101906020018083116127ee57829003601f168201915b505050505090806005018054600181600116156101000203166002900480601f0160208091040260200160405190810160405280929190818152602001828054600181600116156101000203166002900480156128a95780601f1061287e576101008083540402835291602001916128a9565b820191906000526020600020905b81548152906001019060200180831161288c57829003601f168201915b505050505090806006018054600181600116156101000203166002900480601f0160208091040260200160405190810160405280929190818152602001828054600181600116156101000203166002900480156129475780601f1061291c57610100808354040283529160200191612947565b820191906000526020600020905b81548152906001019060200180831161292a57829003601f168201915b505050505090806007018054600181600116156101000203166002900480601f0160208091040260200160405190810160405280929190818152602001828054600181600116156101000203166002900480156129e55780601f106129ba576101008083540402835291602001916129e5565b820191906000526020600020905b8154815290600101906020018083116129c857829003601f168201915b5050505050905088565b600060608060006129fe61400a565b60008088815260200190815260200160002060090160008781526020019081526020016000206080604051908101604052908160008201548152602001600182018054600181600116156101000203166002900480601f016020809104026020016040519081016040528092919081815260200182805460018160011615610100020316600290048015612ad35780601f10612aa857610100808354040283529160200191612ad3565b820191906000526020600020905b815481529060010190602001808311612ab657829003601f168201915b50505050508152602001600282018054600181600116156101000203166002900480601f016020809104026020016040519081016040528092919081815260200182805460018160011615610100020316600290048015612b755780601f10612b4a57610100808354040283529160200191612b75565b820191906000526020600020905b815481529060010190602001808311612b5857829003601f168201915b505050505081526020016003820154815250509050806000015181602001518260400151836060015182925081915094509450945094505092959194509250565b60606002856040516020018082805190602001908083835b602083101515612bf35780518252602082019150602081019050602083039250612bce565b6001836020036101000a0380198251168184511680821785525050505050509050019150506040516020818303038152906040526040518082805190602001908083835b602083101515612c5c5780518252602082019150602081019050602083039250612c37565b6001836020036101000a038019825116818451168082178552505050505050905001915050602060405180830381855afa158015612c9e573d6000803e3d6000fd5b5050506040513d6020811015612cb357600080fd5b8101908080519060200190929190505050600260008089815260200190815260200160002060090160008060008b81526020019081526020016000206008015481526020019081526020016000206002016040516020018082805460018160011615610100020316600290048015612d625780601f10612d40576101008083540402835291820191612d62565b820191906000526020600020905b815481529060010190602001808311612d4e575b50509150506040516020818303038152906040526040518082805190602001908083835b602083101515612dab5780518252602082019150602081019050602083039250612d86565b6001836020036101000a038019825116818451168082178552505050505050905001915050602060405180830381855afa158015612ded573d6000803e3d6000fd5b5050506040513d6020811015612e0257600080fd5b8101908080519060200190929190505050141515612e1f57600080fd5b600080878152602001908152602001600020600801600081548092919060010191905055506080604051908101604052804281526020018481526020018381526020018581525060008088815260200190815260200160002060090160008060008a8152602001908152602001600020600801548152602001908152602001600020600082015181600001556020820151816001019080519060200190612ec7929190613f8a565b506040820151816002019080519060200190612ee4929190613f8a565b50606082015181600301559050507f5d821b8b6ce18465607d9c51957a48484030b98fc16bf4b5a700a595f2b2bd6f86838686604051808581526020018060200184815260200180602001838103835286818151815260200191508051906020019080838360005b83811015612f67578082015181840152602081019050612f4c565b50505050905090810190601f168015612f945780820380516001836020036101000a031916815260200191505b50838103825284818151815260200191508051906020019080838360005b83811015612fcd578082015181840152602081019050612fb2565b50505050905090810190601f168015612ffa5780820380516001836020036101000a031916815260200191505b50965050505050505060405180910390a195945050505050565b6000600454905090565b60015481565b60608060608060606002876040516020018082805190602001908083835b6020831015156130675780518252602082019150602081019050602083039250613042565b6001836020036101000a0380198251168184511680821785525050505050509050019150506040516020818303038152906040526040518082805190602001908083835b6020831015156130d057805182526020820191506020810190506020830392506130ab565b6001836020036101000a038019825116818451168082178552505050505050905001915050602060405180830381855afa158015613112573d6000803e3d6000fd5b5050506040513d602081101561312757600080fd5b810190808051906020019092919050505060028060008b73ffffffffffffffffffffffffffffffffffffffff1673ffffffffffffffffffffffffffffffffffffffff16815260200190815260200160002060010160405160200180828054600181600116156101000203166002900480156131d95780601f106131b75761010080835404028352918201916131d9565b820191906000526020600020905b8154815290600101906020018083116131c5575b50509150506040516020818303038152906040526040518082805190602001908083835b60208310151561322257805182526020820191506020810190506020830392506131fd565b6001836020036101000a038019825116818451168082178552505050505050905001915050602060405180830381855afa158015613264573d6000803e3d6000fd5b5050506040513d602081101561327957600080fd5b810190808051906020019092919050505014151561329657600080fd5b6002866040516020018082805190602001908083835b6020831015156132d157805182526020820191506020810190506020830392506132ac565b6001836020036101000a0380198251168184511680821785525050505050509050019150506040516020818303038152906040526040518082805190602001908083835b60208310151561333a5780518252602082019150602081019050602083039250613315565b6001836020036101000a038019825116818451168082178552505050505050905001915050602060405180830381855afa15801561337c573d6000803e3d6000fd5b5050506040513d602081101561339157600080fd5b810190808051906020019092919050505060028060008b73ffffffffffffffffffffffffffffffffffffffff1673ffffffffffffffffffffffffffffffffffffffff16815260200190815260200160002060020160405160200180828054600181600116156101000203166002900480156134435780601f10613421576101008083540402835291820191613443565b820191906000526020600020905b81548152906001019060200180831161342f575b50509150506040516020818303038152906040526040518082805190602001908083835b60208310151561348c5780518252602082019150602081019050602083039250613467565b6001836020036101000a038019825116818451168082178552505050505050905001915050602060405180830381855afa1580156134ce573d6000803e3d6000fd5b5050506040513d60208110156134e357600080fd5b810190808051906020019092919050505014151561350057600080fd5b600260008973ffffffffffffffffffffffffffffffffffffffff1673ffffffffffffffffffffffffffffffffffffffff168152602001908152602001600020600301600260008a73ffffffffffffffffffffffffffffffffffffffff1673ffffffffffffffffffffffffffffffffffffffff168152602001908152602001600020600401600260008b73ffffffffffffffffffffffffffffffffffffffff1673ffffffffffffffffffffffffffffffffffffffff168152602001908152602001600020600501600260008c73ffffffffffffffffffffffffffffffffffffffff1673ffffffffffffffffffffffffffffffffffffffff168152602001908152602001600020600601600260008d73ffffffffffffffffffffffffffffffffffffffff1673ffffffffffffffffffffffffffffffffffffffff168152602001908152602001600020600701848054600181600116156101000203166002900480601f0160208091040260200160405190810160405280929190818152602001828054600181600116156101000203166002900480156136df5780601f106136b4576101008083540402835291602001916136df565b820191906000526020600020905b8154815290600101906020018083116136c257829003601f168201915b50505050509450838054600181600116156101000203166002900480601f01602080910402602001604051908101604052809291908181526020018280546001816001161561010002031660029004801561377b5780601f106137505761010080835404028352916020019161377b565b820191906000526020600020905b81548152906001019060200180831161375e57829003601f168201915b50505050509350828054600181600116156101000203166002900480601f0160208091040260200160405190810160405280929190818152602001828054600181600116156101000203166002900480156138175780601f106137ec57610100808354040283529160200191613817565b820191906000526020600020905b8154815290600101906020018083116137fa57829003601f168201915b50505050509250818054600181600116156101000203166002900480601f0160208091040260200160405190810160405280929190818152602001828054600181600116156101000203166002900480156138b35780601f10613888576101008083540402835291602001916138b3565b820191906000526020600020905b81548152906001019060200180831161389657829003601f168201915b50505050509150808054600181600116156101000203166002900480601f01602080910402602001604051908101604052809291908181526020018280546001816001161561010002031660029004801561394f5780601f106139245761010080835404028352916020019161394f565b820191906000526020600020905b81548152906001019060200180831161393257829003601f168201915b5050505050905094509450945094509450939792965093509350565b6000602052806000526040600020600091509050806000015490806001018054600181600116156101000203166002900480601f016020809104026020016040519081016040528092919081815260200182805460018160011615610100020316600290048015613a1d5780601f106139f257610100808354040283529160200191613a1d565b820191906000526020600020905b815481529060010190602001808311613a0057829003601f168201915b505050505090806002018054600181600116156101000203166002900480601f016020809104026020016040519081016040528092919081815260200182805460018160011615610100020316600290048015613abb5780601f10613a9057610100808354040283529160200191613abb565b820191906000526020600020905b815481529060010190602001808311613a9e57829003601f168201915b505050505090806003018054600181600116156101000203166002900480601f016020809104026020016040519081016040528092919081815260200182805460018160011615610100020316600290048015613b595780601f10613b2e57610100808354040283529160200191613b59565b820191906000526020600020905b815481529060010190602001808311613b3c57829003601f168201915b505050505090806004018054600181600116156101000203166002900480601f016020809104026020016040519081016040528092919081815260200182805460018160011615610100020316600290048015613bf75780601f10613bcc57610100808354040283529160200191613bf7565b820191906000526020600020905b815481529060010190602001808311613bda57829003601f168201915b505050505090806005018054600181600116156101000203166002900480601f016020809104026020016040519081016040528092919081815260200182805460018160011615610100020316600290048015613c955780601f10613c6a57610100808354040283529160200191613c95565b820191906000526020600020905b815481529060010190602001808311613c7857829003601f168201915b505050505090806006018054600181600116156101000203166002900480601f016020809104026020016040519081016040528092919081815260200182805460018160011615610100020316600290048015613d335780601f10613d0857610100808354040283529160200191613d33565b820191906000526020600020905b815481529060010190602001808311613d1657829003601f168201915b5050505050908060070154908060080154905089565b600460008154809291906001019190505550856003896040518082805190602001908083835b602083101515613d945780518252602082019150602081019050602083039250613d6f565b6001836020036101000a03801982511681845116808217855250505050505090500191505090815260200160405180910390209080519060200190613dda929190614033565b50610100604051908101604052808873ffffffffffffffffffffffffffffffffffffffff16815260200187815260200186815260200189815260200185815260200184815260200183815260200182815250600260008973ffffffffffffffffffffffffffffffffffffffff1673ffffffffffffffffffffffffffffffffffffffff16815260200190815260200160002060008201518160000160006101000a81548173ffffffffffffffffffffffffffffffffffffffff021916908373ffffffffffffffffffffffffffffffffffffffff1602179055506020820151816001019080519060200190613ece929190613f8a565b506040820151816002019080519060200190613eeb929190613f8a565b506060820151816003019080519060200190613f08929190613f8a565b506080820151816004019080519060200190613f25929190613f8a565b5060a0820151816005019080519060200190613f42929190613f8a565b5060c0820151816006019080519060200190613f5f929190613f8a565b5060e0820151816007019080519060200190613f7c929190613f8a565b509050505050505050505050565b828054600181600116156101000203166002900490600052602060002090601f016020900481019282601f10613fcb57805160ff1916838001178555613ff9565b82800160010185558215613ff9579182015b82811115613ff8578251825591602001919060010190613fdd565b5b50905061400691906140b3565b5090565b608060405190810160405280600081526020016060815260200160608152602001600081525090565b828054600181600116156101000203166002900490600052602060002090601f016020900481019282601f1061407457805160ff19168380011785556140a2565b828001600101855582156140a2579182015b828111156140a1578251825591602001919060010190614086565b5b5090506140af91906140b3565b5090565b6140d591905b808211156140d15760008160009055506001016140b9565b5090565b9056fea165627a7a7230582086c8646bd7e2a09fb948f296d1e1f03f2c123f27299c4c1a68424c6237607f630029",
  "source": "// SPDX-License-Identifier: MIT\npragma solidity >=0.4.22 <0.9.0;\n\nlibrary AssetLibrary {\n    struct Status {\n        uint256 time;\n        string status;\n        string owner;\n        uint256 verified;\n    }\n    struct Blood {\n        uint256 id;\n        string uniqueid;\n        string batch;\n        string aadhar;\n        string currentPosition;\n        string blood_group;\n        string expiry_date;\n        uint256 verified;\n        uint256 statusCount;\n        mapping(uint256 => Status) status;\n    }\n\n    struct Login {\n        // uint id;\n        address payable user_address;\n        string email;\n        string password;\n        string name;\n        string typeID;\n        string addressUser;\n        string phone;\n        string location;\n    }\n}\n\ncontract AssetTracker {\n    mapping(uint256 => AssetLibrary.Blood) public BloodStore;\n\n    uint256 public bloodCount = 0;\n\n    function createAsset(\n        string memory _uniqueid,\n        string memory _batch,\n        string memory _aadhar,\n        string memory _currentPosition,\n        string memory _blood_group,\n        string memory _expiry_date,\n        string memory _status\n    ) public returns (uint256) {\n        bloodCount++;\n        BloodStore[bloodCount] = AssetLibrary.Blood(\n            bloodCount,\n            _uniqueid,\n            _batch,\n            _aadhar,\n            _currentPosition,\n            _blood_group,\n            _expiry_date,\n            0,\n            0\n        );\n        BloodStore[bloodCount].statusCount++;\n        BloodStore[bloodCount].status[\n            BloodStore[bloodCount].statusCount\n        ] = AssetLibrary.Status(block.timestamp, _status, _currentPosition, 0);\n        emit BloodCreate(bloodCount, _currentPosition, _status, 0);\n    }\n\n    function getBlood(uint256 _id) public view returns (\n            string memory,\n            string memory,\n            string memory,\n            string memory,\n            string memory,\n            string memory\n        ){\n        return (\n            BloodStore[_id].uniqueid,\n            BloodStore[_id].batch,\n            BloodStore[_id].aadhar,\n            BloodStore[_id].currentPosition,\n            BloodStore[_id].blood_group,\n            BloodStore[_id].expiry_date\n        );\n    }\n\n    function getBlood2(uint256 _id) public view returns (uint256, uint256) {\n        return (BloodStore[_id].verified, BloodStore[_id].statusCount);\n    }\n\n    function transferAsset(\n        uint256 _id,\n        string memory _oldUser,\n        uint256 verified,\n        string memory _status,\n        string memory _newUser\n    ) public returns (string memory) {\n        require(\n            sha256(\n                abi.encodePacked(\n                    (BloodStore[_id].status[BloodStore[_id].statusCount].owner)\n                )\n            ) == sha256(abi.encodePacked((_oldUser)))\n        );\n        BloodStore[_id].statusCount++;\n        BloodStore[_id].status[BloodStore[_id].statusCount] = AssetLibrary\n            .Status(block.timestamp, _status, _newUser, verified);\n        emit BloodTransfer(_id, _newUser, verified, _status);\n    }\n\n    function getBloodCount() public view returns (uint256) {\n        return bloodCount;\n    }\n\n    function getStatus(uint256 _id, uint256 _statusCount) public view returns (\n            uint256,\n            string memory,\n            string memory,\n            uint256\n        )\n    {\n        AssetLibrary.Status memory s = BloodStore[_id].status[_statusCount];\n        return (s.time, s.status, s.owner, s.verified);\n    }\n\n    event BloodTransfer(\n        uint256 id,\n        string newOwner,\n        uint256 verified,\n        string status\n    );\n\n    event BloodCreate(\n        uint256 id,\n        string currentPosition,\n        string status,\n        uint256 verified\n    );\n\n    mapping(address => AssetLibrary.Login) public LoginStore;\n    mapping(string => string) nametoemail;\n    \n    uint256 public userCount = 0;\n\n    function addidentity(\n        string memory _name,\n        address payable user_address,\n        string memory _email,\n        string memory _password,\n        string memory _typeID,\n        string memory _address,\n        string memory _phone,\n        string memory _location\n    ) public {\n        userCount++;\n        nametoemail[_name] = _email;\n        LoginStore[user_address] = AssetLibrary.Login(\n            user_address,\n            _email,\n            _password,\n            _name,\n            _typeID,\n            _address,\n            _phone,\n            _location\n        );\n    }\n    \n    function getemail(string memory _name) public view returns (string memory) {\n        return nametoemail[_name];\n    }\n\n    function getLogin(\n        address payable _add,\n        string memory _email,\n        string memory _password\n    )public view returns (\n            string memory,\n            string memory,\n            string memory,\n            string memory,\n            string memory\n        )\n    {\n        require(\n            sha256(abi.encodePacked((LoginStore[_add].email))) ==\n                sha256(abi.encodePacked((_email)))\n        );\n        require(\n            sha256(abi.encodePacked((LoginStore[_add].password))) ==\n                sha256(abi.encodePacked((_password)))\n        );\n        return (\n            LoginStore[_add].name,\n            LoginStore[_add].typeID,\n            LoginStore[_add].addressUser,\n            LoginStore[_add].phone,\n            LoginStore[_add].location\n        );\n    }\n    \n    function getUserCount() public view returns (uint256) {\n        return userCount;\n    }\n}",
  "sourcePath": "C:\\Users\\HP\\Documents\\now-ui-kit-react-main\\now-ui-kit-react-main\\src\\contracts\\AssetTracker.sol",
  "compiler": {
    "name": "solc",
    "version": "0.5.1+commit.c8a2cb62.Emscripten.clang"
  },
  "schemaVersion": "3.4.16",
  "updatedAt": "2024-01-28T06:52:52.029Z",
  "networkType": "ethereum",
  "devdoc": {
    "methods": {}
  },
  "userdoc": {
    "methods": {}
  }
}